{
  "contractName": "GasStation",
  "abi": [
    {
      "constant": true,
      "inputs": [
        {
          "name": "",
          "type": "address"
        }
      ],
      "name": "nonce",
      "outputs": [
        {
          "name": "",
          "type": "uint256"
        }
      ],
      "payable": false,
      "stateMutability": "view",
      "type": "function"
    },
    {
      "constant": true,
      "inputs": [],
      "name": "owner",
      "outputs": [
        {
          "name": "",
          "type": "address"
        }
      ],
      "payable": false,
      "stateMutability": "view",
      "type": "function"
    },
    {
      "inputs": [
        {
          "name": "_token",
          "type": "address"
        }
      ],
      "payable": false,
      "stateMutability": "nonpayable",
      "type": "constructor"
    },
    {
      "anonymous": false,
      "inputs": [
        {
          "indexed": false,
          "name": "sig",
          "type": "bytes"
        },
        {
          "indexed": false,
          "name": "signer",
          "type": "address"
        },
        {
          "indexed": false,
          "name": "destination",
          "type": "address"
        },
        {
          "indexed": false,
          "name": "data",
          "type": "bytes"
        },
        {
          "indexed": false,
          "name": "remaining",
          "type": "uint256"
        },
        {
          "indexed": false,
          "name": "_hash",
          "type": "bytes32"
        }
      ],
      "name": "Relayed",
      "type": "event"
    },
    {
      "constant": false,
      "inputs": [
        {
          "name": "signer",
          "type": "address"
        },
        {
          "name": "plan",
          "type": "uint8"
        }
      ],
      "name": "subscribe",
      "outputs": [
        {
          "name": "",
          "type": "bool"
        }
      ],
      "payable": false,
      "stateMutability": "nonpayable",
      "type": "function"
    },
    {
      "constant": false,
      "inputs": [
        {
          "name": "signer",
          "type": "address"
        },
        {
          "name": "plan",
          "type": "uint8"
        }
      ],
      "name": "subscribeETH",
      "outputs": [
        {
          "name": "",
          "type": "bool"
        }
      ],
      "payable": true,
      "stateMutability": "payable",
      "type": "function"
    },
    {
      "constant": true,
      "inputs": [
        {
          "name": "signer",
          "type": "address"
        }
      ],
      "name": "plan",
      "outputs": [
        {
          "name": "",
          "type": "uint256"
        },
        {
          "name": "",
          "type": "uint256"
        }
      ],
      "payable": false,
      "stateMutability": "view",
      "type": "function"
    },
    {
      "constant": false,
      "inputs": [
        {
          "name": "sig",
          "type": "bytes"
        },
        {
          "name": "signer",
          "type": "address"
        },
        {
          "name": "destination",
          "type": "address"
        },
        {
          "name": "value",
          "type": "uint256"
        },
        {
          "name": "data",
          "type": "bytes"
        }
      ],
      "name": "relay",
      "outputs": [
        {
          "name": "",
          "type": "bool"
        }
      ],
      "payable": false,
      "stateMutability": "nonpayable",
      "type": "function"
    },
    {
      "constant": true,
      "inputs": [
        {
          "name": "signer",
          "type": "address"
        },
        {
          "name": "destination",
          "type": "address"
        },
        {
          "name": "value",
          "type": "uint256"
        },
        {
          "name": "data",
          "type": "bytes"
        }
      ],
      "name": "getHash",
      "outputs": [
        {
          "name": "",
          "type": "bytes32"
        }
      ],
      "payable": false,
      "stateMutability": "view",
      "type": "function"
    }
  ],
  "bytecode": "0x608060405234801561001057600080fd5b5060405160208061114c83398101806040528101908080519060200190929190505050806000806101000a81548173ffffffffffffffffffffffffffffffffffffffff021916908373ffffffffffffffffffffffffffffffffffffffff16021790555033600160006101000a81548173ffffffffffffffffffffffffffffffffffffffff021916908373ffffffffffffffffffffffffffffffffffffffff16021790555060026060604051908101604052806305f5e1008152602001671bc16d674ec80000815260200162278d00815250908060018154018082558091505090600182039060005260206000209060030201600090919290919091506000820151816000015560208201518160010155604082015181600201555050505061100f8061013d6000396000f300608060405260043610610083576000357c0100000000000000000000000000000000000000000000000000000000900463ffffffff16806328931c671461008857806370ae92d2146100e35780637f9ec70b1461013a5780638da5cb5b14610209578063c509c8e114610260578063dce6966514610371578063fd3cbfc5146103d9575b600080fd5b6100c9600480360381019080803573ffffffffffffffffffffffffffffffffffffffff169060200190929190803560ff169060200190929190505050610437565b604051808215151515815260200191505060405180910390f35b3480156100ef57600080fd5b50610124600480360381019080803573ffffffffffffffffffffffffffffffffffffffff169060200190929190505050610533565b6040518082815260200191505060405180910390f35b34801561014657600080fd5b506101eb600480360381019080803573ffffffffffffffffffffffffffffffffffffffff169060200190929190803573ffffffffffffffffffffffffffffffffffffffff16906020019092919080359060200190929190803590602001908201803590602001908080601f016020809104026020016040519081016040528093929190818152602001838380828437820191505050505050919291929050505061054b565b60405180826000191660001916815260200191505060405180910390f35b34801561021557600080fd5b5061021e61073e565b604051808273ffffffffffffffffffffffffffffffffffffffff1673ffffffffffffffffffffffffffffffffffffffff16815260200191505060405180910390f35b34801561026c57600080fd5b50610357600480360381019080803590602001908201803590602001908080601f0160208091040260200160405190810160405280939291908181526020018383808284378201915050505050509192919290803573ffffffffffffffffffffffffffffffffffffffff169060200190929190803573ffffffffffffffffffffffffffffffffffffffff16906020019092919080359060200190929190803590602001908201803590602001908080601f0160208091040260200160405190810160405280939291908181526020018383808284378201915050505050509192919290505050610764565b604051808215151515815260200191505060405180910390f35b34801561037d57600080fd5b506103bf600480360381019080803573ffffffffffffffffffffffffffffffffffffffff169060200190929190803560ff169060200190929190505050610b43565b604051808215151515815260200191505060405180910390f35b3480156103e557600080fd5b5061041a600480360381019080803573ffffffffffffffffffffffffffffffffffffffff169060200190929190505050610d6e565b604051808381526020018281526020019250505060405180910390f35b6000610441610fc1565b60028360ff1681548110151561045357fe5b90600052602060002090600302016060604051908101604052908160008201548152602001600182015481526020016002820154815250509050600081600001511115156104a057600080fd5b806020015134101515156104b357600080fd5b60408051908101604052808260000151815260200182604001514201815250600360008673ffffffffffffffffffffffffffffffffffffffff1673ffffffffffffffffffffffffffffffffffffffff1681526020019081526020016000206000820151816000015560208201518160010155905050600191505092915050565b60046020528060005260406000206000915090505481565b60003085858585600460008b73ffffffffffffffffffffffffffffffffffffffff1673ffffffffffffffffffffffffffffffffffffffff16815260200190815260200160002054604051602001808773ffffffffffffffffffffffffffffffffffffffff1673ffffffffffffffffffffffffffffffffffffffff166c010000000000000000000000000281526014018673ffffffffffffffffffffffffffffffffffffffff1673ffffffffffffffffffffffffffffffffffffffff166c010000000000000000000000000281526014018573ffffffffffffffffffffffffffffffffffffffff1673ffffffffffffffffffffffffffffffffffffffff166c0100000000000000000000000002815260140184815260200183805190602001908083835b602083101515610693578051825260208201915060208101905060208303925061066e565b6001836020036101000a03801982511681845116808217855250505050505090500182815260200196505050505050506040516020818303038152906040526040518082805190602001908083835b60208310151561070757805182526020820191506020810190506020830392506106e2565b6001836020036101000a03801982511681845116808217855250505050505090500191505060405180910390209050949350505050565b600160009054906101000a900473ffffffffffffffffffffffffffffffffffffffff1681565b600080600080600160009054906101000a900473ffffffffffffffffffffffffffffffffffffffff1673ffffffffffffffffffffffffffffffffffffffff163373ffffffffffffffffffffffffffffffffffffffff161415156107c657600080fd5b6107d28888888861054b565b9250600460008973ffffffffffffffffffffffffffffffffffffffff1673ffffffffffffffffffffffffffffffffffffffff1681526020019081526020016000206000815480929190600101919050555061082d838a610e00565b91508173ffffffffffffffffffffffffffffffffffffffff168873ffffffffffffffffffffffffffffffffffffffff1614151561086957600080fd5b42600360008a73ffffffffffffffffffffffffffffffffffffffff1673ffffffffffffffffffffffffffffffffffffffff168152602001908152602001600020600101541115156108b957600080fd5b615208600360008a73ffffffffffffffffffffffffffffffffffffffff1673ffffffffffffffffffffffffffffffffffffffff1681526020019081526020016000206000015411151561090b57600080fd5b5a9050610919878787610fa9565b505a8103600360008a73ffffffffffffffffffffffffffffffffffffffff1673ffffffffffffffffffffffffffffffffffffffff168152602001908152602001600020600001600082825403925050819055507f8ed468fd31e9232d2125fc811aba3399ac675262a4467708d1a824f5757c309089898988600360008e73ffffffffffffffffffffffffffffffffffffffff1673ffffffffffffffffffffffffffffffffffffffff168152602001908152602001600020600001548860405180806020018773ffffffffffffffffffffffffffffffffffffffff1673ffffffffffffffffffffffffffffffffffffffff1681526020018673ffffffffffffffffffffffffffffffffffffffff1673ffffffffffffffffffffffffffffffffffffffff168152602001806020018581526020018460001916600019168152602001838103835289818151815260200191508051906020019080838360005b83811015610a91578082015181840152602081019050610a76565b50505050905090810190601f168015610abe5780820380516001836020036101000a031916815260200191505b50838103825286818151815260200191508051906020019080838360005b83811015610af7578082015181840152602081019050610adc565b50505050905090810190601f168015610b245780820380516001836020036101000a031916815260200191505b509850505050505050505060405180910390a150505095945050505050565b6000610b4d610fc1565b60028360ff16815481101515610b5f57fe5b9060005260206000209060030201606060405190810160405290816000820154815260200160018201548152602001600282015481525050905060008160000151111515610bac57600080fd5b6000809054906101000a900473ffffffffffffffffffffffffffffffffffffffff1673ffffffffffffffffffffffffffffffffffffffff166323b872dd333084602001516040518463ffffffff167c0100000000000000000000000000000000000000000000000000000000028152600401808473ffffffffffffffffffffffffffffffffffffffff1673ffffffffffffffffffffffffffffffffffffffff1681526020018373ffffffffffffffffffffffffffffffffffffffff1673ffffffffffffffffffffffffffffffffffffffff1681526020018281526020019350505050602060405180830381600087803b158015610ca857600080fd5b505af1158015610cbc573d6000803e3d6000fd5b505050506040513d6020811015610cd257600080fd5b81019080805190602001909291905050501515610cee57600080fd5b60408051908101604052808260000151815260200182604001514201815250600360008673ffffffffffffffffffffffffffffffffffffffff1673ffffffffffffffffffffffffffffffffffffffff1681526020019081526020016000206000820151816000015560208201518160010155905050600191505092915050565b600080600360008473ffffffffffffffffffffffffffffffffffffffff1673ffffffffffffffffffffffffffffffffffffffff16815260200190815260200160002060000154600360008573ffffffffffffffffffffffffffffffffffffffff1673ffffffffffffffffffffffffffffffffffffffff1681526020019081526020016000206001015491509150915091565b60008060008060418551141515610e1a5760009350610fa0565b6020850151925060408501519150606085015160001a9050601b8160ff161015610e4557601b810190505b601b8160ff1614158015610e5d5750601c8160ff1614155b15610e6b5760009350610fa0565b60018660405160200180807f19457468657265756d205369676e6564204d6573736167653a0a333200000000815250601c0182600019166000191681526020019150506040516020818303038152906040526040518082805190602001908083835b602083101515610ef25780518252602082019150602081019050602083039250610ecd565b6001836020036101000a0380198251168184511680821785525050505050509050019150506040518091039020828585604051600081526020016040526040518085600019166000191681526020018460ff1660ff1681526020018360001916600019168152602001826000191660001916815260200194505050505060206040516020810390808403906000865af1158015610f93573d6000803e3d6000fd5b5050506020604051035193505b50505092915050565b600080600083516020850186885af190509392505050565b60606040519081016040528060008152602001600081526020016000815250905600a165627a7a7230582046bce6f21f10e3bbe1a9d034d1db3fdcfe51404601fb8e53075c4587917733f90029",
  "source": "pragma solidity ^0.4.23;\n\nimport './ERC20.sol';\n\ncontract GasStation {\n    struct Plan {\n        uint gas;\n        uint price;\n        uint period;\n    }\n    \n    struct Subscription {\n        uint remaining;\n        uint validUntil;\n    }\n    \n    address token;\n    address public owner;\n    Plan[] plans;\n    mapping (address => Subscription) subscriptions;\n    mapping(address => uint) public nonce;\n    uint constant MIN_GAS = 21000;\n    \n    event Relayed(bytes sig, address signer, address destination, bytes data, uint remaining, bytes32 _hash);\n    \n    constructor(address _token) public {\n        token = _token;\n        owner = msg.sender;\n        \n        plans.push(Plan(\n            100*10**6, //100M gas \n            2*10**18, //2DAI\n            30 days)); //30days\n    }\n        \n    function subscribe(address signer, uint8 plan) public returns (bool) {\n        Plan memory p = plans[plan];\n        \n        require(p.gas > 0); //dumb check if plan exists\n        require(ERC20Interface(token).transferFrom(msg.sender, this, p.price)); //move tokens from sender to relayer\n        \n        subscriptions[signer] = Subscription(p.gas, now + p.period);\n        \n        return true;\n    }\n\n    function subscribeETH(address signer, uint8 plan) public payable returns (bool) {\n        Plan memory p = plans[plan];\n        \n        require(p.gas > 0); //dumb check if plan exists\n        require(msg.value >= p.price); //move tokens from sender to relayer\n        \n        subscriptions[signer] = Subscription(p.gas, now + p.period);\n        \n        return true;\n    }\n    \n    function plan(address signer) public view returns (uint, uint) {\n        return (subscriptions[signer].remaining, subscriptions[signer].validUntil);\n    }\n    \n    function relay(bytes sig, address signer, address destination, uint value, bytes data) public returns (bool) {\n        require(msg.sender == owner);\n        \n        bytes32 _hash = getHash(signer, destination, value, data);\n        \n        nonce[signer]++;\n        \n        address _signer = verifySigner(_hash,sig);\n        \n        require(signer == _signer);\n        require(subscriptions[signer].validUntil > now); //valid subscription\n        require(subscriptions[signer].remaining > MIN_GAS); //whatever minimum gas\n        \n        //gas accounting\n        uint startGas = gasleft();\n        \n        executeCall(destination, value, data);\n        \n        subscriptions[signer].remaining -= startGas - gasleft();\n        \n        emit Relayed(sig, signer, destination, data, subscriptions[signer].remaining, _hash);\n    }\n    \n    // copied from https://github.com/uport-project/uport-identity/blob/develop/contracts/Proxy.sol\n  // which was copied from GnosisSafe\n  // https://github.com/gnosis/gnosis-safe-contracts/blob/master/contracts/GnosisSafe.sol\n  function executeCall(address to, uint256 value, bytes data) internal returns (bool success) {\n    assembly {\n       success := call(gas, to, value, add(data, 0x20), mload(data), 0, 0)\n    }\n  }\n    \n    function getHash(address signer, address destination, uint value, bytes data) public view returns(bytes32){\n        return keccak256(abi.encodePacked(address(this), signer, destination, value, data, nonce[signer]));\n    }\n    \n    //borrowed from OpenZeppelin's ESDA stuff:\n  //https://github.com/OpenZeppelin/openzeppelin-solidity/blob/master/contracts/cryptography/ECDSA.sol\n    function verifySigner(bytes32 _hash, bytes _signature) internal pure returns (address){\n        bytes32 r;\n        bytes32 s;\n        uint8 v;\n        // Check the signature length\n        if (_signature.length != 65) {\n          return 0x0;\n        }\n        // Divide the signature in r, s and v variables\n        // ecrecover takes the signature parameters, and the only way to get them\n        // currently is to use assembly.\n        // solium-disable-next-line security/no-inline-assembly\n        assembly {\n          r := mload(add(_signature, 32))\n          s := mload(add(_signature, 64))\n          v := byte(0, mload(add(_signature, 96)))\n        }\n        // Version of signature should be 27 or 28, but 0 and 1 are also possible versions\n        if (v < 27) {\n          v += 27;\n        }\n        // If the version is correct return the signer address\n        if (v != 27 && v != 28) {\n          return 0x0;\n        } else {\n          // solium-disable-next-line arg-overflow\n          return ecrecover(keccak256(\n            abi.encodePacked(\"\\x19Ethereum Signed Message:\\n32\", _hash)\n          ), v, r, s);\n        }\n    }\n}",
  "sourcePath": "/Users/piotrkosinski/Projects/gas-subscriptions/contracts/contracts/GasStation.sol",
  "compiler": {
    "name": "solc",
    "version": "0.4.24+commit.e67f0147.Emscripten.clang"
  },
  "schemaVersion": "2.0.1",
  "updatedAt": "2018-11-13T06:44:08.207Z"
}