{
  "contractName": "Counter",
  "abi": [
    {
      "constant": false,
      "inputs": [],
      "name": "increment",
      "outputs": [
        {
          "name": "",
          "type": "bool"
        }
      ],
      "payable": false,
      "stateMutability": "nonpayable",
      "type": "function"
    },
    {
      "constant": true,
      "inputs": [],
      "name": "getCounter",
      "outputs": [
        {
          "name": "",
          "type": "uint256"
        }
      ],
      "payable": false,
      "stateMutability": "view",
      "type": "function"
    }
  ],
  "bytecode": "0x608060405234801561001057600080fd5b5060ed8061001f6000396000f3006080604052600436106049576000357c0100000000000000000000000000000000000000000000000000000000900463ffffffff1680638ada066e14604e578063d09de08a146076575b600080fd5b348015605957600080fd5b50606060a2565b6040518082815260200191505060405180910390f35b348015608157600080fd5b50608860ab565b604051808215151515815260200191505060405180910390f35b60008054905090565b60008060008154809291906001019190505550905600a165627a7a72305820091ba874b895f5ef1009b2188d807585dbe4a5b459a2f89c7b724e77eed9bef60029",
  "source": "pragma solidity ^0.4.23;\n\ncontract Counter {\n  uint256 counter;\n\n  function increment() public returns (bool) {\n    counter++;\n  }\n\n  function getCounter() public view returns(uint256) {\n    return counter;\n  }\n}",
  "sourcePath": "/Users/piotrkosinski/Projects/gas-subscriptions/contracts/contracts/Counter.sol",
  "compiler": {
    "name": "solc",
    "version": "0.4.24+commit.e67f0147.Emscripten.clang"
  },
  "schemaVersion": "2.0.1",
  "updatedAt": "2018-11-13T07:55:00.082Z"
}