{
  "contractName": "GasStation",
  "abi": [
    {
      "constant": true,
      "inputs": [
        {
          "name": "",
          "type": "address"
        }
      ],
      "name": "nonce",
      "outputs": [
        {
          "name": "",
          "type": "uint256"
        }
      ],
      "payable": false,
      "stateMutability": "view",
      "type": "function"
    },
    {
      "constant": true,
      "inputs": [],
      "name": "owner",
      "outputs": [
        {
          "name": "",
          "type": "address"
        }
      ],
      "payable": false,
      "stateMutability": "view",
      "type": "function"
    },
    {
      "constant": true,
      "inputs": [
        {
          "name": "",
          "type": "uint256"
        }
      ],
      "name": "plans",
      "outputs": [
        {
          "name": "gas",
          "type": "uint256"
        },
        {
          "name": "price",
          "type": "uint256"
        },
        {
          "name": "period",
          "type": "uint256"
        }
      ],
      "payable": false,
      "stateMutability": "view",
      "type": "function"
    },
    {
      "constant": true,
      "inputs": [
        {
          "name": "",
          "type": "address"
        }
      ],
      "name": "subscriptions",
      "outputs": [
        {
          "name": "remaining",
          "type": "uint256"
        },
        {
          "name": "validUntil",
          "type": "uint256"
        }
      ],
      "payable": false,
      "stateMutability": "view",
      "type": "function"
    },
    {
      "inputs": [
        {
          "name": "_token",
          "type": "address"
        }
      ],
      "payable": false,
      "stateMutability": "nonpayable",
      "type": "constructor"
    },
    {
      "anonymous": false,
      "inputs": [
        {
          "indexed": false,
          "name": "sig",
          "type": "bytes"
        },
        {
          "indexed": false,
          "name": "signer",
          "type": "address"
        },
        {
          "indexed": false,
          "name": "destination",
          "type": "address"
        },
        {
          "indexed": false,
          "name": "data",
          "type": "bytes"
        },
        {
          "indexed": false,
          "name": "remaining",
          "type": "uint256"
        },
        {
          "indexed": false,
          "name": "consumed",
          "type": "uint256"
        },
        {
          "indexed": false,
          "name": "_hash",
          "type": "bytes32"
        }
      ],
      "name": "Relayed",
      "type": "event"
    },
    {
      "constant": false,
      "inputs": [
        {
          "name": "signer",
          "type": "address"
        },
        {
          "name": "plan",
          "type": "uint8"
        }
      ],
      "name": "subscribe",
      "outputs": [
        {
          "name": "",
          "type": "bool"
        }
      ],
      "payable": false,
      "stateMutability": "nonpayable",
      "type": "function"
    },
    {
      "constant": false,
      "inputs": [
        {
          "name": "signer",
          "type": "address"
        },
        {
          "name": "plan",
          "type": "uint8"
        }
      ],
      "name": "subscribeETH",
      "outputs": [
        {
          "name": "",
          "type": "bool"
        }
      ],
      "payable": true,
      "stateMutability": "payable",
      "type": "function"
    },
    {
      "constant": true,
      "inputs": [
        {
          "name": "signer",
          "type": "address"
        }
      ],
      "name": "plan",
      "outputs": [
        {
          "name": "",
          "type": "uint256"
        },
        {
          "name": "",
          "type": "uint256"
        }
      ],
      "payable": false,
      "stateMutability": "view",
      "type": "function"
    },
    {
      "constant": false,
      "inputs": [
        {
          "name": "sig",
          "type": "bytes"
        },
        {
          "name": "signer",
          "type": "address"
        },
        {
          "name": "destination",
          "type": "address"
        },
        {
          "name": "value",
          "type": "uint256"
        },
        {
          "name": "data",
          "type": "bytes"
        }
      ],
      "name": "relay",
      "outputs": [
        {
          "name": "",
          "type": "bool"
        }
      ],
      "payable": false,
      "stateMutability": "nonpayable",
      "type": "function"
    },
    {
      "constant": true,
      "inputs": [
        {
          "name": "signer",
          "type": "address"
        },
        {
          "name": "destination",
          "type": "address"
        },
        {
          "name": "value",
          "type": "uint256"
        },
        {
          "name": "data",
          "type": "bytes"
        }
      ],
      "name": "getHash",
      "outputs": [
        {
          "name": "",
          "type": "bytes32"
        }
      ],
      "payable": false,
      "stateMutability": "view",
      "type": "function"
    },
    {
      "constant": true,
      "inputs": [
        {
          "name": "_hash",
          "type": "bytes32"
        },
        {
          "name": "_signature",
          "type": "bytes"
        }
      ],
      "name": "verifySigner",
      "outputs": [
        {
          "name": "",
          "type": "address"
        }
      ],
      "payable": false,
      "stateMutability": "pure",
      "type": "function"
    }
  ],
  "bytecode": "0x608060405234801561001057600080fd5b5060405160208061143283398101806040528101908080519060200190929190505050806000806101000a81548173ffffffffffffffffffffffffffffffffffffffff021916908373ffffffffffffffffffffffffffffffffffffffff16021790555033600160006101000a81548173ffffffffffffffffffffffffffffffffffffffff021916908373ffffffffffffffffffffffffffffffffffffffff16021790555060026060604051908101604052806305f5e1008152602001614e20815260200162278d0081525090806001815401808255809150509060018203906000526020600020906003020160009091929091909150600082015181600001556020820151816001015560408201518160020155505050506112fb806101376000396000f3006080604052600436106100a4576000357c0100000000000000000000000000000000000000000000000000000000900463ffffffff168063091d6b54146100a957806328931c671461016057806370ae92d2146101bb5780637f9ec70b146102125780638da5cb5b146102e1578063b162061614610338578063c509c8e114610387578063dce6966514610498578063f046395a14610500578063fd3cbfc51461055e575b600080fd5b3480156100b557600080fd5b5061011e6004803603810190808035600019169060200190929190803590602001908201803590602001908080601f01602080910402602001604051908101604052809392919081815260200183838082843782019150505050505091929192905050506105bc565b604051808273ffffffffffffffffffffffffffffffffffffffff1673ffffffffffffffffffffffffffffffffffffffff16815260200191505060405180910390f35b6101a1600480360381019080803573ffffffffffffffffffffffffffffffffffffffff169060200190929190803560ff169060200190929190505050610765565b604051808215151515815260200191505060405180910390f35b3480156101c757600080fd5b506101fc600480360381019080803573ffffffffffffffffffffffffffffffffffffffff169060200190929190505050610861565b6040518082815260200191505060405180910390f35b34801561021e57600080fd5b506102c3600480360381019080803573ffffffffffffffffffffffffffffffffffffffff169060200190929190803573ffffffffffffffffffffffffffffffffffffffff16906020019092919080359060200190929190803590602001908201803590602001908080601f0160208091040260200160405190810160405280939291908181526020018383808284378201915050505050509192919290505050610879565b60405180826000191660001916815260200191505060405180910390f35b3480156102ed57600080fd5b506102f6610a6c565b604051808273ffffffffffffffffffffffffffffffffffffffff1673ffffffffffffffffffffffffffffffffffffffff16815260200191505060405180910390f35b34801561034457600080fd5b5061036360048036038101908080359060200190929190505050610a92565b60405180848152602001838152602001828152602001935050505060405180910390f35b34801561039357600080fd5b5061047e600480360381019080803590602001908201803590602001908080601f0160208091040260200160405190810160405280939291908181526020018383808284378201915050505050509192919290803573ffffffffffffffffffffffffffffffffffffffff169060200190929190803573ffffffffffffffffffffffffffffffffffffffff16906020019092919080359060200190929190803590602001908201803590602001908080601f0160208091040260200160405190810160405280939291908181526020018383808284378201915050505050509192919290505050610acb565b604051808215151515815260200191505060405180910390f35b3480156104a457600080fd5b506104e6600480360381019080803573ffffffffffffffffffffffffffffffffffffffff169060200190929190803560ff169060200190929190505050610fb4565b604051808215151515815260200191505060405180910390f35b34801561050c57600080fd5b50610541600480360381019080803573ffffffffffffffffffffffffffffffffffffffff1690602001909291905050506111df565b604051808381526020018281526020019250505060405180910390f35b34801561056a57600080fd5b5061059f600480360381019080803573ffffffffffffffffffffffffffffffffffffffff169060200190929190505050611203565b604051808381526020018281526020019250505060405180910390f35b600080600080604185511415156105d6576000935061075c565b6020850151925060408501519150606085015160001a9050601b8160ff16101561060157601b810190505b601b8160ff16141580156106195750601c8160ff1614155b15610627576000935061075c565b60018660405160200180807f19457468657265756d205369676e6564204d6573736167653a0a333200000000815250601c0182600019166000191681526020019150506040516020818303038152906040526040518082805190602001908083835b6020831015156106ae5780518252602082019150602081019050602083039250610689565b6001836020036101000a0380198251168184511680821785525050505050509050019150506040518091039020828585604051600081526020016040526040518085600019166000191681526020018460ff1660ff1681526020018360001916600019168152602001826000191660001916815260200194505050505060206040516020810390808403906000865af115801561074f573d6000803e3d6000fd5b5050506020604051035193505b50505092915050565b600061076f6112ad565b60028360ff1681548110151561078157fe5b90600052602060002090600302016060604051908101604052908160008201548152602001600182015481526020016002820154815250509050600081600001511115156107ce57600080fd5b806020015134101515156107e157600080fd5b60408051908101604052808260000151815260200182604001514201815250600360008673ffffffffffffffffffffffffffffffffffffffff1673ffffffffffffffffffffffffffffffffffffffff1681526020019081526020016000206000820151816000015560208201518160010155905050600191505092915050565b60046020528060005260406000206000915090505481565b60003085858585600460008b73ffffffffffffffffffffffffffffffffffffffff1673ffffffffffffffffffffffffffffffffffffffff16815260200190815260200160002054604051602001808773ffffffffffffffffffffffffffffffffffffffff1673ffffffffffffffffffffffffffffffffffffffff166c010000000000000000000000000281526014018673ffffffffffffffffffffffffffffffffffffffff1673ffffffffffffffffffffffffffffffffffffffff166c010000000000000000000000000281526014018573ffffffffffffffffffffffffffffffffffffffff1673ffffffffffffffffffffffffffffffffffffffff166c0100000000000000000000000002815260140184815260200183805190602001908083835b6020831015156109c1578051825260208201915060208101905060208303925061099c565b6001836020036101000a03801982511681845116808217855250505050505090500182815260200196505050505050506040516020818303038152906040526040518082805190602001908083835b602083101515610a355780518252602082019150602081019050602083039250610a10565b6001836020036101000a03801982511681845116808217855250505050505090500191505060405180910390209050949350505050565b600160009054906101000a900473ffffffffffffffffffffffffffffffffffffffff1681565b600281815481101515610aa157fe5b90600052602060002090600302016000915090508060000154908060010154908060020154905083565b6000806000806000600160009054906101000a900473ffffffffffffffffffffffffffffffffffffffff1673ffffffffffffffffffffffffffffffffffffffff163373ffffffffffffffffffffffffffffffffffffffff16141515610b2f57600080fd5b610b3b89898989610879565b9350600460008a73ffffffffffffffffffffffffffffffffffffffff1673ffffffffffffffffffffffffffffffffffffffff16815260200190815260200160002060008154809291906001019190505550610b96848b6105bc565b92508273ffffffffffffffffffffffffffffffffffffffff168973ffffffffffffffffffffffffffffffffffffffff16141515610bd257600080fd5b42600360008b73ffffffffffffffffffffffffffffffffffffffff1673ffffffffffffffffffffffffffffffffffffffff16815260200190815260200160002060010154111515610c8b576040517f08c379a00000000000000000000000000000000000000000000000000000000081526004018080602001828103825260158152602001807f537562736372697074696f6e3a20696e76616c6964000000000000000000000081525060200191505060405180910390fd5b615208600360008b73ffffffffffffffffffffffffffffffffffffffff1673ffffffffffffffffffffffffffffffffffffffff16815260200190815260200160002060000154111515610d6c576040517f08c379a00000000000000000000000000000000000000000000000000000000081526004018080602001828103825260268152602001807f537562736372697074696f6e3a206e6f7420656e6f7567682072656d61696e6981526020017f6e6720676173000000000000000000000000000000000000000000000000000081525060400191505060405180910390fd5b5a9150610d7a888888611295565b506152085a830301905080600360008b73ffffffffffffffffffffffffffffffffffffffff1673ffffffffffffffffffffffffffffffffffffffff168152602001908152602001600020600001600082825403925050819055507fecc9b2b80c2f10632d5928dbd5726f9197bb7e5e02ee87761029fb3e104cc5348a8a8a89600360008f73ffffffffffffffffffffffffffffffffffffffff1673ffffffffffffffffffffffffffffffffffffffff16815260200190815260200160002060000154868a60405180806020018873ffffffffffffffffffffffffffffffffffffffff1673ffffffffffffffffffffffffffffffffffffffff1681526020018773ffffffffffffffffffffffffffffffffffffffff1673ffffffffffffffffffffffffffffffffffffffff16815260200180602001868152602001858152602001846000191660001916815260200183810383528a818151815260200191508051906020019080838360005b83811015610f00578082015181840152602081019050610ee5565b50505050905090810190601f168015610f2d5780820380516001836020036101000a031916815260200191505b50838103825287818151815260200191508051906020019080838360005b83811015610f66578082015181840152602081019050610f4b565b50505050905090810190601f168015610f935780820380516001836020036101000a031916815260200191505b50995050505050505050505060405180910390a15050505095945050505050565b6000610fbe6112ad565b60028360ff16815481101515610fd057fe5b906000526020600020906003020160606040519081016040529081600082015481526020016001820154815260200160028201548152505090506000816000015111151561101d57600080fd5b6000809054906101000a900473ffffffffffffffffffffffffffffffffffffffff1673ffffffffffffffffffffffffffffffffffffffff166323b872dd333084602001516040518463ffffffff167c0100000000000000000000000000000000000000000000000000000000028152600401808473ffffffffffffffffffffffffffffffffffffffff1673ffffffffffffffffffffffffffffffffffffffff1681526020018373ffffffffffffffffffffffffffffffffffffffff1673ffffffffffffffffffffffffffffffffffffffff1681526020018281526020019350505050602060405180830381600087803b15801561111957600080fd5b505af115801561112d573d6000803e3d6000fd5b505050506040513d602081101561114357600080fd5b8101908080519060200190929190505050151561115f57600080fd5b60408051908101604052808260000151815260200182604001514201815250600360008673ffffffffffffffffffffffffffffffffffffffff1673ffffffffffffffffffffffffffffffffffffffff1681526020019081526020016000206000820151816000015560208201518160010155905050600191505092915050565b60036020528060005260406000206000915090508060000154908060010154905082565b600080600360008473ffffffffffffffffffffffffffffffffffffffff1673ffffffffffffffffffffffffffffffffffffffff16815260200190815260200160002060000154600360008573ffffffffffffffffffffffffffffffffffffffff1673ffffffffffffffffffffffffffffffffffffffff1681526020019081526020016000206001015491509150915091565b600080600083516020850186885af190509392505050565b60606040519081016040528060008152602001600081526020016000815250905600a165627a7a723058202af7a6a2ec97bf43a28f5b3587f2629f4b6572cf527db7d9d5ba83f8fe8d712f0029",
  "source": "pragma solidity ^0.4.23;\n\nimport './ERC20.sol';\n\ncontract GasStation {\n    struct Plan {\n        uint gas;\n        uint price;\n        uint period;\n    }\n    \n    struct Subscription {\n        uint remaining;\n        uint validUntil;\n    }\n    \n    address token;\n    address public owner;\n    Plan[] public plans;\n    mapping (address => Subscription) public subscriptions;\n    mapping(address => uint) public nonce;\n    uint constant MIN_GAS = 21000;\n    \n    event Relayed(bytes sig, address signer, address destination, bytes data, uint remaining, uint consumed, bytes32 _hash);\n    \n    constructor(address _token) public {\n        token = _token;\n        owner = msg.sender;\n        \n        plans.push(Plan(\n            100*10**6, //100M gas \n            20000, //2*10**18, //2DAI\n            30 days)); //30days\n    }\n        \n    function subscribe(address signer, uint8 plan) public returns (bool) {\n        Plan memory p = plans[plan];\n        \n        require(p.gas > 0); //dumb check if plan exists\n        require(ERC20Interface(token).transferFrom(msg.sender, this, p.price)); //move tokens from sender to relayer\n        \n        subscriptions[signer] = Subscription(p.gas, now + p.period);\n        \n        return true;\n    }\n\n    function subscribeETH(address signer, uint8 plan) public payable returns (bool) {\n        Plan memory p = plans[plan];\n        \n        require(p.gas > 0); //dumb check if plan exists\n        require(msg.value >= p.price); //move tokens from sender to relayer\n        \n        subscriptions[signer] = Subscription(p.gas, now + p.period);\n        \n        return true;\n    }\n    \n    function plan(address signer) public view returns (uint, uint) {\n        return (subscriptions[signer].remaining, subscriptions[signer].validUntil);\n    }\n    \n    function relay(bytes sig, address signer, address destination, uint value, bytes data) public returns (bool) {\n        require(msg.sender == owner);\n        \n        bytes32 _hash = getHash(signer, destination, value, data);\n        \n        nonce[signer]++;\n        \n        address _signer = verifySigner(_hash,sig);\n        \n        require(signer == _signer);\n        require(subscriptions[signer].validUntil > now, \"Subscription: invalid\"); //valid subscription\n        require(subscriptions[signer].remaining > MIN_GAS, \"Subscription: not enough remaining gas\"); //whatever minimum gas\n    \n        //gas accounting\n        uint startGas = gasleft();\n        \n        executeCall(destination, value, data);\n\n        uint consumed = startGas - gasleft() + MIN_GAS;\n        \n        subscriptions[signer].remaining -= consumed;\n        \n        emit Relayed(sig, signer, destination, data, subscriptions[signer].remaining, consumed, _hash);\n    }\n    \n    // copied from https://github.com/uport-project/uport-identity/blob/develop/contracts/Proxy.sol\n  // which was copied from GnosisSafe\n  // https://github.com/gnosis/gnosis-safe-contracts/blob/master/contracts/GnosisSafe.sol\n  function executeCall(address to, uint256 value, bytes data) internal returns (bool success) {\n    assembly {\n       success := call(gas, to, value, add(data, 0x20), mload(data), 0, 0)\n    }\n  }\n    \n    function getHash(address signer, address destination, uint value, bytes data) public view returns(bytes32){\n        return keccak256(abi.encodePacked(address(this), signer, destination, value, data, nonce[signer]));\n    }\n    \n    //borrowed from OpenZeppelin's ESDA stuff:\n  //https://github.com/OpenZeppelin/openzeppelin-solidity/blob/master/contracts/cryptography/ECDSA.sol\n    function verifySigner(bytes32 _hash, bytes _signature) public pure returns (address){\n        bytes32 r;\n        bytes32 s;\n        uint8 v;\n        // Check the signature length\n        if (_signature.length != 65) {\n          return 0x0;\n        }\n        // Divide the signature in r, s and v variables\n        // ecrecover takes the signature parameters, and the only way to get them\n        // currently is to use assembly.\n        // solium-disable-next-line security/no-inline-assembly\n        assembly {\n          r := mload(add(_signature, 32))\n          s := mload(add(_signature, 64))\n          v := byte(0, mload(add(_signature, 96)))\n        }\n        // Version of signature should be 27 or 28, but 0 and 1 are also possible versions\n        if (v < 27) {\n          v += 27;\n        }\n        // If the version is correct return the signer address\n        if (v != 27 && v != 28) {\n          return 0x0;\n        } else {\n          // solium-disable-next-line arg-overflow\n          return ecrecover(keccak256(\n            abi.encodePacked(\"\\x19Ethereum Signed Message:\\n32\", _hash)\n          ), v, r, s);\n        }\n    }\n}",
  "sourcePath": "/Users/piotrkosinski/Projects/gas-subscriptions/contracts/contracts/GasStation.sol",
  "compiler": {
    "name": "solc",
    "version": "0.4.24+commit.e67f0147.Emscripten.clang"
  },
  "schemaVersion": "2.0.1",
  "updatedAt": "2018-11-13T10:49:22.783Z"
}